:020000040800F2
:10000000B8090020450100080D0600080506000893
:1000100009060008E5020008110B000800000000B6
:100020000000000000000000000000008D07000834
:10003000E9020008000000009506000879080008A1
:100040005F0100085F0100085F0100085F01000810
:100050005F0100085F0100085F0100085F01000800
:100060005F0100085F0100085F0100085F010008F0
:100070005F0100085F0100085F0100085F010008E0
:100080005F0100085F0100085F0100085F010008D0
:100090005F0100085F0100085F0100085F010008C0
:1000A0005F0100085F0100085F0100085F010008B0
:1000B0005F0100085F0100085F0100085F010008A0
:1000C0005F0100085F0100085F0100085F01000890
:1000D0005F010008DD0800085F0100085F010008FB
:1000E0005F0100085F0100085F0100085F01000870
:1000F0005F0100085F0100085F0100085F01000860
:100100005F0100085F0100085F0100085F0100084F
:100110005F0100085F0100085F0100085F0100083F
:100120005F0100085F0100085F0100085F0100082F
:10013000DFF80CD000F0C4F800480047610C00085C
:10014000B80900200648804706480047FEE7FEE75A
:10015000FEE7FEE7FEE7FEE7FEE7FEE7FEE7FEE777
:100160007D0800083101000880EA010210B502F0A4
:100170000043400022D04A001FD0010E01EB126163
:10018000C0F35600C2F3560240F4000042F40002ED
:10019000A0FB022000047F39140400D0401C50EA68
:1001A000124001D44000491EC2B20C0604EBD0102C
:1001B000401C4008802A02D003E0002010BD20F03F
:1001C0000100002900DA0020184310BD30B480EA95
:1001D000010202F0004530F0004221F0004013D04F
:1001E00090B1C30DD40DC2F31601C0F31600E41A8A
:1001F00041F4000140F400027D34914201D3641CBB
:1002000000E04900002C02DA30BC002070474FF4B7
:1002100000000023914201D3891A034340084FEAAA
:100220004101F7D151B1914202D14FF0004105E0B7
:1002300002D24FF0010101E06FF0010103EBC45065
:10024000284430BC00F005B896230022114600F087
:1002500009B80029A8BF7047401C490008BF20F01A
:100260000100704710B4B0FA80FC00FA0CF050EABC
:10027000010404BF10BC704749B1CCF1200421FA3D
:1002800004F411FA0CF118BF012121430843A3EB38
:100290000C01CB1D4FEA00614FEA102042BF002045
:1002A00010BC704700EBC35010440029A4BF10BC21
:1002B0007047401C490008BF20F0010010BC704787
:1002C000064C074D06E0E06840F0010394E80700A3
:1002D00098471034AC42F6D3FFF72EFF680E0008A3
:1002E000880E000800BFFEE770472DE9FF4706466D
:1002F0000F4615469846DDE90D9A0C9C00200090AB
:100300000190029003908DF80060FD208DF80100AF
:100310008DF8027028128DF80300E8B28DF8040001
:100320008DF80580200E8DF80600200C8DF8070052
:10033000200A8DF80800E0B28DF809008DF80A90C7
:100340008DF80BA06B208DF80C000D21684600F095
:1003500027FDBDE8FF877FB506460D460024002037
:1003600000900190029003900DF80460641C112D20
:1003700068D2DFE805F0090F151B672167272D33C9
:10038000393F6745515C4B001F200DF80400601C8D
:10039000C4B258E020200DF80400601CC4B252E042
:1003A00021200DF80400601CC4B24CE024200DF89C
:1003B0000400601CC4B246E027200DF80400601C55
:1003C000C4B240E031200DF80400601CC4B23AE031
:1003D00033200DF80400601CC4B234E035200DF861
:1003E0000400601CC4B22EE036200DF80400601C2E
:1003F000C4B228E037200DF80400601CC4B222E02B
:100400003A200DF80400601CC4B21CE03B200DF83B
:100410000400601CC4B216E042200DF80400601C09
:10042000C4B26C200DF80400601CC4B20BE0432081
:100430000DF80400601CC4B27A200DF80400601CA2
:10044000C4B200E000BF00BF6B200DF80400601CC8
:10045000C4B22146684600F0A3FC7FBD2DE9F041FF
:10046000024600250026002000230024002791F8E2
:1004700003C00CF00F0591F803C00CF0100CBCF198
:10048000000F03D091F802C04CEA050591F800C0B6
:10049000BCF1000F31D0146800202BE04FF0010CAC
:1004A0000CFA00F3B1F800C00CEA03069E4220D11A
:1004B00083004FF00F0C0CFA03F7BC4305FA03FC62
:1004C0004CEA040491F803C0BCF1280F06D14FF0A8
:1004D000010C0CFA00FCC2F814C00AE091F803C049
:1004E000BCF1480F05D14FF0010C0CFA00FCC2F82A
:1004F00010C0401C0828D1D31460B1F800C0BCF172
:10050000FF0F34DD546800202EE000F1080C4FF09E
:10051000010808FA0CF3B1F800C00CEA03069E4289
:1005200021D183004FF00F0C0CFA03F7BC4305FAFE
:1005300003FC4CEA040491F803C0BCF1280F05D178
:1005400000F1080C08FA0CF8C2F8148091F803C006
:10055000BCF1480F07D100F1080C4FF0010808FA70
:100560000CF8C2F81080401C0828CED35460BDE8B7
:10057000F0810000F0B50A46002300240021002588
:1005800000F00046B6F1004F02D11D4EF16901E0C6
:100590001B4E7168C0F3034583B200F44016B6F5F4
:1005A000401F08D121F07061154E766826F0706604
:1005B000134F7E6012E000F48016B6F5801F06D15E
:1005C000032606FA05F4A14341F0706106E0460DEA
:1005D000360103FA06F6B14341F0706122B1460DCF
:1005E000360103FA06F6314300F00046B6F1004F3B
:1005F00002D1034EF16101E0014E7160F0BD0000D7
:100600000000014000BFFEE700BFFEE770470000AA
:1006100070B5002100230F22C47804B3154C246860
:1006200004F4E064C4F5E064210AC1F10403CA40A3
:10063000447804FA03F184781440214309010E4CF4
:100640000678A155047804F01F050124AC40057814
:100650006D11AD0005F1E025C5F8004109E0047811
:1006600004F01F050124AC40044D0678761145F8CE
:10067000264070BD0CED00E000E400E080E100E009
:1006800002490143024A1160704700000000FA0568
:100690000CED00E07047000029B1064A9269024360
:1006A000044B9A6104E0034A92698243014B9A61C8
:1006B000704700000010024030B5002100220024E5
:1006C00000232D4D6D6805F00C0121B1042905D0E2
:1006D000082923D105E0294D056022E0274D05605A
:1006E0001FE0254D6D6805F47012234D6D6805F40B
:1006F0008034022505EB92421CB9214D554305601B
:100700000BE01D4D6D6805F400351DB11C4D5543C2
:10071000056002E0194D5543056002E0174D056084
:1007200000BF00BF144D6D6805F0F0010909154DBB
:100730006B5C0568DD4045600F4D6D6805F4E06158
:10074000090A104D6B5C4568DD4085600A4D6D6897
:1007500005F46051C90A0B4D6B5C4568DD40C5600E
:10076000054D6D6805F44041890B074D6B5CC5680C
:10077000B5FBF3F5056130BD0010024000127A00B0
:1007800000093D002000002030000020704710B517
:1007900000F002F810BD00000CB5002001900090A0
:1007A0003348006840F480303149086000BF304869
:1007B000006800F4003000900198401C01900098FF
:1007C00018B90198B0F5A06FF1D12948006800F47C
:1007D000003010B10120009001E00020009000984E
:1007E000012843D12348006840F0100021490860E7
:1007F0000846006820F0030008600846006840F0E2
:10080000020008601A484068194948600846406874
:1008100048600846406840F4806048600846406888
:1008200020F47C1048600846406840F4E8104860B6
:100830000846006840F08070086000BF0C480068FF
:1008400000F000700028F9D00948406820F003004B
:10085000074948600846406840F00200486000BF11
:100860000348406800F00C000828F9D10CBD0000D6
:1008700000100240002002407047000010B51348ED
:10088000006840F0010011490860084640681049BE
:1008900008400E494860084600680E4908400B4968
:1008A00008600846006820F4802008600846406818
:1008B00020F4FE0048604FF41F008860FFF767FFD8
:1008C0004FF000600449086010BD000000100240B5
:1008D0000000FFF8FFFFF6FE08ED00E008B500207D
:1008E000009040F225511B4800F057F858B11949C3
:1008F000091D0988C8B200F07DF940F2255115485C
:1009000000F030F825E040F22441124800F045F8AC
:10091000F8B1104800880F48001D008800F082F9E7
:100920000D490870002000900AE000F04BF90B49D7
:10093000BDF800208854BDF80000401C80B2009033
:10094000BDF80000044909788842EEDB0120044923
:10095000087008BD00380140090000203400002064
:100960000800002010B50022002340F66A14A142BE
:1009700000D100BF0A1201249440A3B2DC430480DA
:1009800010BD21B1828942F40052828104E0828943
:100990004DF6FF731A408281704770B502460024FD
:1009A00000230025002040F66A16B14200D100BFA6
:1009B000C1F3421501F01F03012606FA03F3012DCE
:1009C00002D19689334006E0022D02D1168A3340C7
:1009D00001E0968A33400C12012606FA04F41688C8
:1009E000344013B10CB1012000E0002070BDF0B51F
:1009F0000346002400260025002040F66A17B9426D
:100A000000D100BF1846C1F3421401F01F060127B0
:100A100007FA06F5012C01D10C3004E0022C01D1BB
:100A2000103000E014301AB107682F43076002E06D
:100A30000768AF430760F0BD2DE9F04786B0054673
:100A40000E460024A24600BFA1460027B08900B18F
:100A500000BF2F462C8A4CF6FF700440F0880443F8
:100A60002C82AC894EF6F3100440B08831890843DB
:100A7000718908430443AC81AC8A4FF6FF400440BF
:100A8000B0890443AC8201A8FFF716FE1F488742D5
:100A900002D1DDF810A001E0DDF80CA0A88900F477
:100AA000004040B10AEBCA0000EB0A10316849006F
:100AB000B0FBF1F807E00AEBCA0000EB0A1031685E
:100AC0008900B0FBF1F86420B8FBF0F004012009C4
:100AD000642101FB1089A88900F4004040B1322054
:100AE00000EBC900B0FBF1F000F00700044308E0A0
:100AF000322000EB09106421B0FBF1F000F00F0090
:100B000004432C8106B0BDE8F087000000380140A6
:100B100000BFFEE702E008C8121F08C1002AFAD190
:100B200070477047002001E001C1121F002AFBD16D
:100B3000704710B500F002F900F004F800F046F933
:100B400010BD000010B501210D20FFF7A5FD01210A
:100B50008803FFF7A1FD01210148FFF70BFD10BD40
:100B60000002300008B5002100916FF07F414FF086
:100B7000E0225161002191610521116114E0002101
:100B80004FF0E02291610E4909684FF47A72B1FB8F
:100B9000F2F1C1F18071009100BF4FF0E02189694D
:100BA000009A9142F9D8401E0028E8DC4FF0E0217D
:100BB000096921F001014FF0E022116108BD000038
:100BC0000C00002000200A4991F80111084A32F86F
:100BD0001100114691F80111491C82F801111146CA
:100BE00091F80111802902DB002182F80111704780
:100BF000B40000200A4991F80011094A22F81100B6
:100C0000114691F80011491C82F80011114691F823
:100C10000011802902DB002182F8001170470000DA
:100C2000B40000200D4890F801010C4991F8001122
:100C3000884208DC094890F80001084991F8011140
:100C4000401A80B27047054890F80101C0F1800059
:100C5000024991F80011084480B2F3E7B400002083
:100C60000EB5FFF766FF4FF4FA60FFF77BFF002039
:100C70004FF44862CDE9002003464FF47A720146F2
:100C800002900120FFF731FB00BF264800780028C2
:100C9000FBD00020234908704FF4FA60FFF762FF91
:100CA0000A210120FFF757FB00BF1E4800780028EB
:100CB000FBD000201B4908701B48007801282ED16A
:100CC0001948407836282AD118480078082826D1B3
:100CD0001549C9780906144A127941EA0241124AB3
:100CE000527941EA0221104A927941EA0200FFF763
:100CF000ABFA0F4908600F490D480068FFF734FA56
:100D000004464FF08F41FFF761FA0B49086006482F
:100D1000807820B10846006880F00040086000BF7D
:100D2000FEE7000008000020340000200900002039
:100D3000000000200000B4430400002008B54FF478
:100D40004070FFF79DFC01208DF8030000208DF816
:100D500002008DF8010025208DF800006846FFF79D
:100D600057FC08BD08B500210091C0F308010B4AEB
:100D700011800AE0BDF80010491C89B20091BDF84D
:100D80000010B1F5FA5F00DD08BD0449091F0988AC
:100D900001F080010029EDD000BFF5E704380140E3
:100DA00038B504460D4600200090009009E09DF8FB
:100DB0000010605CFFF7D6FF9DF80000401CC0B239
:100DC00000909DF80000A842F1DB38BD00B585B069
:100DD0004FF40070ADF8100003208DF812001820B9
:100DE0008DF8130004A91E48FFF738FB4FF480600C
:100DF000ADF8100048208DF8130004A91848FFF73B
:100E00002DFB4FF4E13000900020ADF80400ADF868
:100E10000600ADF80800ADF80C000C20ADF80A0093
:100E200069461048FFF708FE0E4800880D48001D6F
:100E3000008840F225510B48FFF794FD012240F253
:100E400025510848FFF7D3FD012240F2244105480F
:100E5000FFF7CDFD01210348FFF793FD05B000BD6D
:100E60000008014000380140880E00080000002002
:100E700034000000140B0008BC0E000834000020F1
:100E800084090000240B000800000000000000009E
:100E90000000000000A24A04000000000000000062
:100EA0000102030406070809000000000102030410
:0C0EB000010203040607080902040608FA
:0400000508000131BD
:00000001FF
